:1000000003C1000032C1000030C100002EC1000059
:100010002CC100002AC1000028C1000026C1000038
:1000200024C1000022C1000020C100001EC1000048
:100030001CC100001AC1000018C1000016C1000058
:1000400014C1000012C1000010C100000EC1000068
:100050000CC100000AC1000008C100000C94060C8D
:1000600004C100000C947A0C0C94500CFEC00000EB
:10007000FCC00000FAC00000F8C00000F6C000009C
:10008000F4C00000F2C00000F0C00000EEC00000AC
:10009000ECC00000EAC00000E8C00000E6C00000BC
:1000A000E4C00000E2C00000E0C00000DEC00000CC
:1000B000DCC00000DAC00000D8C00000D6C00000DC
:1000C000D4C00000D2C00000D0C00000CEC00000EC
:1000D000CCC00000CAC00000C8C00000C6C00000FC
:1000E000C4C0000000002100240027002A002D00C9
:1000F0003000330001010000040107010A01000083
:100100002200250028002B002E00310034000201BF
:100110000000050108010B0100002000230026005B
:1001200029002C002F00320000010000030106010D
:10013000090105050505070508080808020202026D
:100140000A0A080804040404010101010101010173
:100150000303030303030303040707070C0C0C0C3E
:100160000C0C0C0C02020202060606060606060627
:100170000B0B0B0B0B0B0B0B0102102020080810B4
:100180002040102040800201020108040201010207
:1001900004081020408080402010080402018004E0
:1001A000020180402010080402010804020101023B
:1001B0000408102040800102040810204080000044
:1001C0000A0B02090C0D0E080703040100000000D1
:1001D000000000000000000000000000000000001F
:1001E00000000000000000000000121110000000DC
:1001F00000000000000000000000000000000000FF
:1002000000000000B00C771511241FBECFEFD1E223
:10021000DEBFCDBF00E00CBF13E0A0E0B2E0E2E73C
:10022000F1E300E00BBF02C007900D92A035B107CB
:10023000D9F725E0A0E5B3E001C01D92AC32B207CA
:10024000E1F711E0C3E0D1E000E006C02197010929
:10025000802FFE010E943216C230D10780E00807CD
:10026000A9F70E948D0D0C94A818CACEBC018091EC
:10027000A9039091AA03EBE9F3E027E030E02150D5
:10028000310932972115310509F4089546855785BE
:1002900064177507A4F7481759078CF7CA01EFCF01
:1002A0008150823108F05AC0E82FF0E08827E45AE4
:1002B000FE4F8F4F0C9432167C0180016E01740149
:1002C0007801AE01830189018D01930197019B01A2
:1002D000A101A501AE01A901AF01B3018091800088
:1002E0008F77809380000895809180008F7DF9CF73
:1002F00080918000877FF5CF84B58F7784BD089586
:1003000084B58F7DFBCF8091B0008F778093B00054
:1003100008958091B0008F7DF9CF809190008F7704
:10032000809390000895809190008F7DF9CF809107
:100330009000877FF5CF8091A0008F778093A000F9
:1003400008958091A0008F7DF9CF8091A000877FD4
:10035000F5CF809120018F778093200108958091BF
:1003600020018F7DF9CF80912001877FF5CFCF933A
:10037000DF93282F30E0F901E254FE4F8491F90118
:10038000E858FE4FD491F901EE5CFE4FC491CC23A6
:1003900099F0811185DFEC2FF0E0EE0FFF1FE85E92
:1003A000FE4FA591B491EC91ED2381E090E009F42A
:1003B00080E0DF91CF91089580E090E0FACF1F9325
:1003C000CF93DF93282F30E0F901E254FE4F849160
:1003D000F901E858FE4FD491F901EE5CFE4FC4914B
:1003E000CC23A1F0162F81115BDFEC2FF0E0EE0F94
:1003F000FF1FE250FF4FA591B4918FB7F894EC9195
:10040000111108C0D095DE23DC938FBFDF91CF910F
:100410001F910895DE2BF8CFCF93DF9390E0FC017E
:10042000E858FE4F24918E5C9E4FFC0184918823F6
:10043000C9F090E0880F991FFC01EC51FF4FA59186
:10044000B491FC01E250FF4FC591D49161110DC0F0
:100450009FB7F8948C91209582238C9388812823D0
:1004600028839FBFDF91CF910895623051F49FB7E9
:10047000F8943C91822F809583238C93E8812E2BD6
:10048000EFCF8FB7F894EC912E2B2C938FBFEACF40
:100490000F931F93CF93DF93EC01862F1B861A8651
:1004A000198218821E8A1F8A188E198EEAE0F0E0DF
:1004B000FF83EE836C877D875F874E87398B288B20
:1004C0001B8B0A8B61E0A8DF61E08E85A5DF61E010
:1004D0008889A2DF61E08A899FDF1D8A1C8A84E007
:1004E00090E099878887DF91CF911F910F910895B0
:1004F0001F93CF93DF93182FEB0161E08DDF2097DF
:1005000031F460E0812FDF91CF911F9158CFCF3F21
:10051000D10511F461E0F6CFE12FF0E0E254FE4F97
:10052000E491E150E23108F0B3C0F0E08827E456EE
:10053000FD4F8F4F0C943216AE02B602BB02C502BD
:10054000CF024803D902E102E902F302FD020703E8
:100550001603200348032A0334033E0384B580684E
:1005600084BDC7BDDF91CF911F91089584B580628E
:1005700084BDC8BDF7CF80918000806880938000E3
:10058000D0938900C0938800EDCF80918000806275
:1005900080938000D0938B00C0938A00E3CF80913A
:1005A0008000886080938000D0938D00C0938C0081
:1005B000D9CF8091B00080688093B000C093B30021
:1005C000D1CF8091B00080628093B000C093B4001E
:1005D000C9CF80919000806880939000D09399005B
:1005E000C0939800BFCF809190008062809390006C
:1005F000D0939B00C0939A00B5CF80919000886003
:1006000080939000D0939D00C0939C00ABCF8091CD
:10061000A00080688093A0008091A0008F7B8093D1
:10062000A000D093A900C093A8009CCF8091A00007
:1006300080628093A000D093AB00C093AA0092CFB9
:100640008091A00088608093A000D093AD00C093FB
:10065000AC0088CF80912001806880932001D093E6
:100660002901C09328017ECF809120018062809370
:100670002001D0932B01C0932A0174CF80912001D7
:10068000886080932001D0932D01C0932C016ACF04
:10069000C038D1050CF03ECF34CF20917B00982F8D
:1006A0009870277F922B90937B0087708064809353
:1006B0007C0080917A00806480937A0080917A0037
:1006C00086FDFCCF809178009091790008953FB726
:1006D000F8948091970390919803A0919903B09119
:1006E0009A0326B5A89B05C02F3F19F00196A11DBE
:1006F000B11D3FBFBA2FA92F982F8827BC01CD016C
:10070000620F711D811D911D42E0660F771F881FCA
:10071000991F4A95D1F708958F929F92AF92BF92F9
:10072000CF92DF92EF92FF924B015C01D0DF6B0121
:100730007C01CDDF6C197D098E099F09683E7340ED
:1007400081059105B0F321E0821A9108A108B10852
:1007500088EEC80E83E0D81EE11CF11C81149104C0
:10076000A104B10431F7FF90EF90DF90CF90BF90DC
:10077000AF909F908F9008952FB7F8946091930356
:100780007091940380919503909196032FBF0895E3
:100790000895AF92BF92CF92DF92EF92FF920F93A4
:1007A0001F93CF93DF936C017B018B01040F151F07
:1007B000EB015E01AE18BF08C017D10759F069916F
:1007C000D601ED91FC910190F081E02DC6011995C3
:1007D000892B79F7C501DF91CF911F910F91FF9080
:1007E000EF90DF90CF90BF90AF900895FC01538DB4
:1007F000448D252F30E0842F90E0821B930B5417FB
:1008000010F0CF96089501970895FC01918D828D87
:10081000981761F0A28DAE0FBF2FB11D5D968C9120
:10082000928D9F5F9F73928F90E008958FEF9FEF5F
:100830000895FC01918D828D981731F0828DE80F1B
:10084000F11D858D90E008958FEF9FEF0895FC01D5
:10085000918D228D892F90E0805C9F4F821B9109A2
:100860008F73992708958BEA93E0F1DF21E0892BBC
:1008700009F420E0822F0895FC01A48DA80FB92F60
:10088000B11DA35ABF4F2C91848D90E001968F73B8
:100890009927848FA689B7892C93A089B1898C91D7
:1008A000837080648C93938D848D981306C0028826
:1008B000F389E02D80818F7D80830895EF92FF92F0
:1008C0000F931F93CF93DF93EC0181E0888F9B8D73
:1008D0008C8D98131AC0E889F989808185FF15C02D
:1008E0009FB7F894EE89FF896083E889F989808150
:1008F0008370806480839FBF81E090E0DF91CF911F
:100900001F910F91FF90EF900895F62E0B8D10E040
:100910000F5F1F4F0F731127E02E8C8D8E110BC0B0
:100920000FB607FCFACFE889F989808185FFF5CFFA
:10093000CE01A2DFF2CFEB8DEC0FFD2FF11DE35ABC
:10094000FF4FF0829FB7F8940B8FEA89FB89808173
:100950008062D0CFCF93DF93EC01888D8823B1F0F4
:10096000AA89BB89E889F9898C9185FD03C08081BA
:1009700086FD0CC00FB607FCF7CF8C9185FFF2CF38
:10098000808185FFEDCFCE0177DFEACFDF91CF9178
:10099000089580E090E0892B21F065DF81110E94AD
:1009A000000080E090E0892B49F080E090E0892B06
:1009B00029F00E94000081110E94000080E090E078
:1009C000892B49F080E090E0892B29F00E940000FB
:1009D00081110E94000080E090E0892B49F080E0C6
:1009E00090E0892B29F00E94000081110C940000F6
:1009F0000895FC01808580FD04C082FB882780F972
:100A0000089580E00895862F642F06CDFC0181852E
:100A1000AEDC21E0892B09F420E0822F0895CF93EA
:100A2000DF93EC0169871886F1DF882319F0888548
:100A300083608887A1DE6A837B838C839D83DF91BB
:100A4000CF910895CF92DF92EF92FF921F93CF93B1
:100A5000DF93EC0188858B7F8887CE01D7DF182F45
:100A60008885869581701817A9F086DE6A837B8356
:100A70008C839D83888592E089278887888582FB7F
:100A8000882780F9DF91CF911F91FF90EF90DF9041
:100A9000CF90089571DECA80DB80EC80FD80AB01D1
:100AA000BC014C195D096E097F098E819F81B0E000
:100AB000A0E0481759076A077B0700F38885817013
:100AC0001817E1F259DE6A837B838C839D838885C6
:100AD00091E08927846088874FDE6A877B878C87CF
:100AE0009D87CCCF90E080E008950F931F93CF9324
:100AF000DF93EC018B0188859985029751F4613071
:100B0000710509F439C06CF560E00115110509F4AF
:100B100034C088859985049751F40130110509F492
:100B20004DC00CF032C00115110509F43AC088859A
:100B30009985059709F0A7C00A30110508F0A3C0F0
:100B4000F8018827E955FA4F8F4F0C943216EE05BD
:100B5000F60501060F0622062406290631063C0684
:100B600041066230710579F060E00330110589F6C5
:100B70008C8525DC60E004C061E08C8520DC61E0D0
:100B80008E851DDCC6CF61E0F3CF02301105D9F0B0
:100B90000330110509F0CBCF61E08C8510DC60E0FB
:100BA00016C061E08C850BDC60E08E8508DC61E0BE
:100BB000888905DC60E08A8902DCB9CF60E08C8539
:100BC000FEDB61E0F2CF60E08C85F9DB61E08E85D1
:100BD000F6DB60E08889F3DB61E0EDCF60E08C85D7
:100BE000EEDB61E08E85EBDB61E007C060E08C85C9
:100BF000E6DB61E08E85E3DB60E08889E0DB60E0D6
:100C00000AC060E08C85DBDB61E08E85D8DB60E0CC
:100C10008889D5DB61E08A89D2DB61E00DC060E0C4
:100C20008C85CDDB61E08E85CADB60E08889C7DB1F
:100C300061E08A89C4DB60E08C89DF91CF911F91EC
:100C40000F91BDCB61E0ECCF61E08C85B8DB60E05B
:100C5000EACF61E08C85B3DB60E08E85B0DB61E0DC
:100C6000E5CF61E08C85ABDB60E08E85A8DB61E0E1
:100C70008889A5DB60E0DDCF61E08C85A0DB60E0EA
:100C8000B1CF60E0FACFDF91CF911F910F9108951E
:100C90004F925F926F927F928F929F92AF92BF928C
:100CA000CF92DF92EF92FF920F931F93CF93DF9338
:100CB000EC018B0177FF04C000271127061B170BDF
:100CC000161617060CF048C081E090E099838883DF
:100CD00084E0E82EF12C9AE0C92ED12C01151105E3
:100CE00009F44CC0F4DC8E889F88A88CB98C2B0149
:100CF0003C01481859086A087B088A809B80AC80B0
:100D0000BD80481459046A047B0440F36E8B7F8BCA
:100D1000888F998F8A859B8528813981213031057B
:100D200009F501969B878A872E813F818217930759
:100D300011F41B861A86015011098A859B85288526
:100D40003985B6012530310509F0B7010E941F161B
:100D5000BC01CE01CADEC2CF672B09F4B9CF19821C
:100D60001882B6CF892B21F48E819F819B878A8739
:100D70008A859B8501979B878A87DDCFDF91CF91FD
:100D80001F910F91FF90EF90DF90CF90BF90AF90A9
:100D90009F908F907F906F905F904F900895CF932A
:100DA000DF93EC018CE279DC18161906DCF470E0B4
:100DB00060E08CE29DDB9E01DD0F440B550B285C4F
:100DC000310941095109AFEFB0E00E94E41528E074
:100DD00037E040E050E00E94C815B90184E3DF919C
:100DE000CF9186CB84E359DC18161906CCF470E059
:100DF00060E084E37DDB9E01DD0F440B550B285C36
:100E0000310941095109AFEFB0E00E94E41528E033
:100E100037E040E050E00E94C815B9018CE2DFCF16
:100E2000DF91CF9108958EEF94E0E3CD8CE095E0D3
:100E3000E0CD8AE195E0DDCD8AE195E003DE8CE04E
:100E400095E000DE8EEF94E0FDDD80EF94E0FACDDA
:100E5000AF92BF92CF92DF92EF92FF920F931F93C8
:100E6000CF93DF938091580390915903813091057E
:100E700009F049C081DCDC019B01AD0160E070E05C
:100E800080E090E0A0905003B0905103C0905203D6
:100E9000D0905303E0905403F09055030091560313
:100EA000109157030E943A16233F314041055105E6
:100EB000610571058105910551F148F15DDCDC01A9
:100EC000CB016093500390935103A0935203B093CE
:100ED000530310925403109255031092560310922C
:100EE00057038CE144DA61E0892B09F060E08CE182
:100EF000DF91CF911F910F91FF90EF90DF90CF90F6
:100F0000BF90AF905CCA892B11F461E0F0CFDF9104
:100F1000CF911F910F91FF90EF90DF90CF90BF90F6
:100F2000AF900895CF93DF93EC0160E08E8147DAB4
:100F300061E08E8144DA60E08E8141DA8BE891E0F5
:100F40000197F1F7DF91CF910895CF92DF92EF9261
:100F5000FF920F931F93CF93DF936C017C0187E087
:100F6000E80EF11CD0E0C0E0062F10E0B8010C2E16
:100F700002C0759567950A94E2F76170F701819157
:100F80007F011DDA2196C430D10581F7C601DF91BA
:100F9000CF911F910F91FF90EF90DF90CF90C2CF34
:100FA000CF92DF92EF92FF920F931F93CF93DF9335
:100FB000EC01F62E642F8C8102DA8D818F3F11F0C7
:100FC00060E0FDD90F2D10E08F8584FF23C06E01F6
:100FD00087E0C80ED11CF12CE12CB8010E2C02C008
:100FE000759567950A94E2F76170F60181916F013A
:100FF000E6D9FFEFEF1AFF0A88E0E816F10469F777
:10100000CE01DF91CF911F910F91FF90EF90DF9074
:10101000CF9088CFB80184E0759567958A95E1F700
:10102000CE0193DF6F2DCE01DF91CF911F910F91F4
:10103000FF90EF90DF90CF9088CF40E0682F8AE854
:1010400094E0AECF81E0F9DF8BE39FE10197F1F708
:101050000895CF93DF93823029F49091990498609A
:101060009093990480939D0410929E0480E4809351
:101070009F0480E18093A00480E58093A10461E057
:1010800080918E04C9D980918F048F3F11F061E067
:10109000C3D961E080919004BFD9CAE8D4E09E0131
:1010A0002A5834408091990484FD0AC084E090E07D
:1010B0002196281739073CF461E08E81ADD9EFCF36
:1010C00088E090E0F5CF8BE39DE00197F1F760E0D9
:1010D00080918E0474D960E08091900470D98091E1
:1010E0008F048F3F11F060E06AD98091990484FDEC
:1010F0002CC063E08AE894E028DFCBE4D6E4CE019C
:101100000197F1F763E08AE894E01FDF2197F1F798
:1011100063E08AE894E019DF83E592E00197F1F754
:1011200062E08AE894E011DF80919904806285DFB3
:1011300084E080939A048CE080DF84DF82E08093F7
:101140009B0486E0DF91CF9178CF806276DF8BE4DD
:1011500096E40197F1F78091990480626EDF83E550
:1011600092E00197F1F780919904806266DFDCCF0D
:1011700090919D04691710F06FEF690FE62FF0E072
:10118000E657FB4F9489890F806857CFEAE8F4E06F
:101190008089982F9260908B8A604FCF41E000DF6A
:1011A00081E090E00895CF93DF93209188043091FF
:1011B0008904232B89F0FC01C0918404D09185041B
:1011C00060817181CE010E948E18009729F08C1BDE
:1011D0009D0BDF91CF9108958FEF9FEFFACFFC0128
:1011E000808191810C94F316FB0101900020E9F7B6
:1011F0003197AF01461B570BDC01ED91FC9102804A
:10120000F381E02D1994CF93DF93BC018BEA93E037
:10121000EBDFEC016EE272E08BEA93E0E5DF8C0F2E
:101220009D1FDF91CF9108954F925F926F927F92B1
:101230008F929F92AF92BF92CF92DF92EF92FF92E6
:101240000F931F93CF93DF93CDB7DEB7A1970FB660
:10125000F894DEBF0FBECDBF8C016B01770FEE0897
:10126000FF08F7FE48C0DC01ED91FC910190F08190
:10127000E02D6DE219955C0122273327A9012C1975
:101280003D094E095F0919A2FE01B1967F019AE05E
:10129000492E512C612C712CCA01B901A301920174
:1012A0000E94EE15605DD7016E937D012115310519
:1012B0004105510589F790E080E0109719F0BD01D4
:1012C000C80192DF8A0D9B1DA1960FB6F894DEBF70
:1012D0000FBECDBFDF91CF911F910F91FF90EF9087
:1012E000DF90CF90BF90AF909F908F907F906F9046
:1012F0005F904F900895A701960119A2FE01B19643
:101300007F018AE0882E912CA12CB12CCA01B90151
:10131000A50194010E94EE15605DD7016E937D01D9
:10132000211531054105510589F790E080E01097BE
:1013300059F2BD01C80158DFC7CFCF93DF93BC017D
:101340008BEA93E071DFEC016EE272E08BEA93E0EE
:101350004BDF8C0F9D1FDF91CF910895CF93DF93CB
:10136000FC0144815581608171818BEA93E011DA3F
:10137000EC016EE272E08BEA93E036DF8C0F9D1F8A
:10138000DF91CF91089530CF63DD5CDE60E080E0D7
:10139000EFDE61E372E08AE894E0F5DF61E080E08F
:1013A000E7DE6FE372E08AE894E0EDDF68EB7BE074
:1013B00080E090E0B1D946CE45DE60E080E0D8DE46
:1013C00060E572E08AE894E0DEDF60E082E0D0DE93
:1013D00060918E0370918F038AE894E025DF61E0CD
:1013E00080E0C6DE63E572E08AE894E0CCDF61E08D
:1013F00082E0BEDE60918C0370918D038AE894E0F8
:1014000013DF60E089E0B4DE66E572E08AE894E02C
:10141000BADF60E08BE0ACDE60918A0370918B03F1
:101420008AE894E001DF61E089E0A2DE69E572E02C
:101430008AE894E0A8DF61E08BE09ADE609188039F
:10144000709189038AE894E0EFCEFCDD01DD8091A4
:10145000840390918503019751F560E083E088DE75
:101460006CE572E08AE894E08EDF61E085E080DE82
:1014700068E672E08AE894E086DF61E08BE078DE7F
:1014800080918C0390918D036EE672E0883C91050B
:101490002CF4181619062CF061E772E08AE894E043
:1014A00072DF68EE73E080E090E036D985DF8091EE
:1014B000800390918103019759F560E083E058DE45
:1014C0006CE572E08AE894E05EDF61E085E050DE82
:1014D00068E672E08AE894E056DF61E08BE048DE7F
:1014E00080918A0390918B0364E772E08C3221E053
:1014F00092072CF4181619062CF067E772E08AE8B8
:1015000094E041DF68EE73E080E090E005D954DFBD
:1015100080917E0390917F03019751F560E083E015
:1015200027DE6CE572E08AE894E02DDF61E085E07B
:101530001FDE68E672E08AE894E025DF61E08BE078
:1015400017DE80918803909189036AE772E08639FB
:1015500091052CF4181619062CF06DE772E08AE854
:1015600094E011DF68EE73E080E090E0D5D824CFFE
:1015700008950F931F93CF93DF934115510541F0C9
:10158000FC01048115810115110539F4FB0110825C
:10159000DF91CF911F910F9108954150510940174C
:1015A000510708F48A01EB01FC0160817181A801F7
:1015B000CE010E947F18C00FD11F1882E9CFFC0115
:1015C000248135814091820450918304241735078A
:1015D000E1F48081918160917E0470917F04009795
:1015E000D1F061157105A1F4232BC1F0FC018081BC
:1015F00090E008C0232B91F0FB01808190E0919551
:101600008195910921E0892B09F020E0822F08952E
:101610000E946118F7CF6115710561F721E0F6CFDF
:101620000F931F93CF93DF938C01EB01FC0180811B
:1016300091810097E1F06881798161157105A9F0C8
:10164000428153812C813D814217530770F00E94E3
:101650006A188C819D81F801958384831D821C8288
:10166000DF91CF911F910F9108950E94F316888109
:101670009981F801918380838A819B8193838283FE
:101680008C819D8195838483198218821B821A82A2
:10169000E5CF0F931F93CF93DF93EC01888199815E
:1016A000009759F02A813B812617370730F081E0F7
:1016B000DF91CF911F910F9108958B016F5F7F4F45
:1016C0000E947C17009759F0998388831B830A83B3
:1016D0002C813D81232B59F7FC011082E8CF80E05B
:1016E000E7CFEF92FF920F931F93CF93DF93EC011D
:1016F0007B018A01BA01CDDF28813981811114C0B3
:101700002115310519F0C9010E94F31619821882BA
:101710001D821C821B821A82CE01DF91CF911F9104
:101720000F91FF90EF9008951D830C83B701C901BD
:101730000E946A18F1CFFC0111821082138212827A
:1017400015821482FB0101900020E9F73197AF0167
:10175000461B570BC6CFCF92DF92EF92FF920F93AB
:101760001F93CF93DF93EC016B017A014617570764
:1017700020F48D2D6A01E62EF82E60E372E0CE0192
:10178000DADF0091880410918904C016D10638F57B
:10179000E016F10608F48701E0918404F0918504D5
:1017A000E00FF11FF0801082609184047091850435
:1017B0006C0D7D1D61157105E1F0FB0101900020AC
:1017C000E9F73197AF01461B570BCE018ADF8091B5
:1017D000840490918504080F191FF801F082CE014E
:1017E000DF91CF911F910F91FF90EF90DF90CF90FD
:1017F000089588819981009711F00E94F31619824B
:1018000018821D821C821B821A82E1CF1F920F92C6
:101810000FB60F9211242F933F938F939F93AF9303
:10182000BF938091930390919403A0919503B091FD
:1018300096033091920323E0230F2D3758F501963C
:10184000A11DB11D20939203809393039093940361
:10185000A0939503B093960380919703909198037A
:10186000A0919903B0919A030196A11DB11D809397
:10187000970390939803A0939903B0939A03BF9111
:10188000AF919F918F913F912F910F900FBE0F902D
:101890001F90189526E8230F0296A11DB11DD2CFE7
:1018A0001F920F920FB60F9211240BB60F922F9327
:1018B0003F934F935F936F937F938F939F93AF93D8
:1018C000BF93EF93FF938BEA93E00E943C04FF9158
:1018D000EF91BF91AF919F918F917F916F915F91A8
:1018E0004F913F912F910F900BBE0F900FBE0F9015
:1018F0001F9018951F920F920FB60F9211240BB6DE
:101900000F922F938F939F93EF93FF93E091BB03DD
:10191000F091BC038081E091C103F091C20382FD8C
:101920001DC090818091C4038F5F8F732091C50388
:10193000821741F0E091C403F0E0E555FC4F958F2C
:101940008093C403FF91EF919F918F912F910F90FE
:101950000BBE0F900FBE0F901F9018958081F2CF95
:101960000F931F93EBEAF3E01382128288EE93E069
:10197000A0E0B0E084839583A683B7838CE092E0F7
:101980009183808385EC90E09587848784EC90E058
:101990009787868780EC90E0918B808B81EC90E03C
:1019A000938B828B82EC90E0958B848B86EC90E01D
:1019B000978B868B118E128E138E148E60E372E0DD
:1019C00084E894E0B8DE60E372E08EE794E0B3DE92
:1019D00060E372E088E794E0AEDE60E372E082E705
:1019E00094E0A9DE60E372E08CE694E0A4DE60E3BC
:1019F00072E086E694E09FDE60E372E080E694E0C9
:101A00009ADE60E372E08AE594E095DE60E372E0DE
:101A100084E594E090DE60E372E08EE494E08BDE97
:101A200060E372E088E494E086DEEAE8F4E01382A2
:101A300012828EE192E09183808386E184838FEF2E
:101A4000858387E1868388E1878389E180878AE1CE
:101A500081878BE182871386148615861686178602
:101A600081E0F7DA0AE010E02BE030E04CE050E0F3
:101A70006DE070E086ED94E00E94480206E010E020
:101A800027E030E048E050E069E070E08CEB94E063
:101A90000E94480202E010E023E030E044E050E021
:101AA00065E070E082EA94E00E944802EAE1F5E035
:101AB0002AE232E03183208312821382148215825B
:101AC0008AE090E09783868310861186ECE0F5E04B
:101AD0003183208312821382148215829783868336
:101AE00010861186EEEFF4E0318320831282138298
:101AF000148215829783868310861186E0EFF4E0C6
:101B00003183208312821382148215829783868305
:101B1000108611861F910F910895CF93DF93CDB753
:101B2000DEB72C970FB6F894DEBF0FBECDBF78940A
:101B300084B5826084BD84B5816084BD85B58260D2
:101B400085BD85B5816085BD80916E008160809383
:101B50006E001092810080918100826080938100EC
:101B600080918100816080938100809180008160FC
:101B7000809380008091B10084608093B100809157
:101B8000B00081608093B00080919100826080936A
:101B900091008091910081608093910080919000EC
:101BA0008160809390008091A10082608093A10069
:101BB0008091A10081608093A1008091A00081604C
:101BC0008093A00080912101826080932101809107
:101BD00021018160809321018091200181608093A7
:101BE000200180917A00846080937A0080917A004D
:101BF000826080937A0080917A00816080937A007D
:101C000080917A00806880937A001092C10061E030
:101C10008CE10E940C02E091BB03F091BC0382E0D6
:101C20008083E091B703F091B8031082E091B9038B
:101C3000F091BA038FEC80831092C303E091BF034D
:101C4000F091C00386E08083E091BD03F091BE0374
:101C5000808180618083E091BD03F091BE0380812B
:101C600088608083E091BD03F091BE03808180682D
:101C70008083E091BD03F091BE0380818F7D8083DE
:101C800080E892E0C0DA62E085E20E940C0262E045
:101C900084E20E940C0262E083E20E940C0262E095
:101CA00082E20E940C0265E270E08AE195E00E9407
:101CB0000F0564E270E08CE095E00E940F0563E29E
:101CC00070E08EEF94E00E940F0562E270E080EF1A
:101CD00094E00E940F058FE090E09093210580939F
:101CE000200590931305809312059093050580932A
:101CF00004059093F7048093F60460E08EE10E945F
:101D00000C0281E090E0909359038093580361E0C6
:101D10008CE20E940C0261E084E30E940C0270E0FD
:101D200060E08CE20E94780270E060E084E30E9450
:101D300078022091DC043091DD04032E000C440B6A
:101D4000550B812C67E8962E63E9A62E63E0B62E2C
:101D5000C501B4011DD77AE5C72ED12CE12CF12C99
:101D6000CA01B901A701960113D72093D804309373
:101D7000D9044093DA045093DB042091C2043091DB
:101D8000C304032E000C440B550BC501B40100D74E
:101D9000CA01B901A7019601FBD62093BE04309376
:101DA000BF044093C0045093C1042091A804309113
:101DB000A904032E000C440B550BC501B401E8D651
:101DC000CA01B901A7019601E3D62093A404309378
:101DD000A5044093A6045093A70482E03AD9E8EC06
:101DE0002E2E312C8091900390919103813091059A
:101DF00009F438C08230910509F4ABC0892B09F091
:101E000073C620D919D801E010E080919003909119
:101E10009103892B09F068C60FD81AD810925A037B
:101E200060E083E0A5D966E872E08AE894E0ABDA86
:101E300061E080E09DD961E972E08AE894E0A3DA8C
:101E400080EF94E00E94F9048823F9F28EE10E9469
:101E5000B701892B11F498DAD8CF1093910300932E
:101E60009003D3CFEFD80E941C0732E0E32EF12C71
:101E70008091900390919103019709F035C60E94DB
:101E8000280760E080E074D96FE972E08AE894E0A6
:101E90007ADA61E080E06CD96CEA72E08AE894E07A
:101EA00072DA8EE10E94B701892B29F46DDA109263
:101EB00091031092900311E080915D03882341F01B
:101EC00080915C03882321F080915B0381112AC0FB
:101ED00087E20E94B701892B71F566EF7FEF86EDEF
:101EE00094E00E94480689E20E94B701892B31F5EF
:101EF00066EF7FEF8CEB94E00E9448068BE20E9435
:101F0000B701892BF1F466EF7FEF82EA94E00E943B
:101F100048068EE10E94B701892B71F635DA81E01F
:101F200080935A0380915A03882371F01092910391
:101F3000109290039DCF10935D03D5CF10935C0357
:101F4000DDCF10935B03E5CFF0929103E092900315
:101F50008FCF78D80E941C07C12C87E8D82E83E940
:101F6000E82E83E0F82E9AE5492E512C612C712C35
:101F700024EB822E912CA12CB12C80919003909176
:101F80009103029709F0B0C50E9428070E941C0720
:101F90008BEA93E00E942704181619060CF0E0C2A1
:101FA0008BEA93E00E94050489831A8200918804D9
:101FB000109189040F5F1F4FB80184E894E069DB3A
:101FC000882399F0209184043091850480918804BD
:101FD00090918904BE016F5F7F4F820F931F0E9413
:101FE0006A1810938904009388046AEB72E0CE01AA
:101FF0000796A1DB4B855C858091880490918904CC
:102000008417950708F4ABC48091840490918504EB
:10201000009709F4A4C46F8178856115710509F4EE
:102020009EC40E947118892B09F099C46CEB72E070
:10203000CE01019680DB20918804309189044D8186
:102040005E8124173507A0F0809184049091850467
:10205000009771F069817A816115710549F0241B3F
:10206000350B820F931F0E94611811E0892B09F034
:1020700010E0CE010196B3D8CE010796B0D8112357
:1020800009F46EC26EEB72E0CE01019654DBCE0114
:10209000019689D88C0190937D0380937C03CE01B7
:1020A00001969DD810939C0300939B0364E373E017
:1020B000CE01019640DBCE01019675D88C0190933C
:1020C0007B0380937A03CE01019689D810939E03F7
:1020D00000939D036CE473E0CE0101962CDBCE01EE
:1020E000019661D88C019093790380937803CE0197
:1020F000019675D81093A00300939F0361EC72E0E2
:10210000CE01019618DBCE0101964DD88C0190933B
:10211000770380937603CE01019661D81093A203D2
:102120000093A10364EC72E0CE01019604DBCE01C2
:10213000019639D88C019093750380937403CE0176
:1021400001964DD81093A4030093A30367EC72E0AB
:10215000CE010196F0DACE01019625D88C0190933C
:10216000730380937203CE01019639D81093A603AE
:102170000093A5036AEC72E0CE010196DCDACE0191
:10218000019611D88C019093710380937003CE0156
:10219000019625D81093A8030093A7036CEB72E077
:1021A000CE010196C8DACE0101960E94D3088C01B7
:1021B00090936F0380936E03CE01019610D8109315
:1021C000AA030093A9036DEC72E08BEA93E0DBD8DD
:1021D00084E894E0C3D880917C0390917D03181625
:1021E00019060CF049C00E9436018C016FED72E0B7
:1021F0008BEA93E0C8D8A8014F5F5F4F60917C03E2
:1022000070917D036E5F7F4FCE010196A4DABE010F
:102210006F5F7F4F88E794E003DACE0101960E945A
:10222000EF0840917C0450917D046AE673E088E7F2
:1022300094E09FD98AE693E086D48C0190938F0333
:1022400080938E0370E060E0009789F09C01990F05
:10225000440B550B285C310941095109AFEFB0E03F
:10226000B3D428E037E040E050E092D4B9018CE2EA
:102270000E947802C80161D880917603909177031B
:10228000181619060CF074C00E9436018C016CEE11
:1022900072E08BEA93E077D86091760370917703D0
:1022A0006E5F7F4FA801CE01019655DABE016F5FC8
:1022B0007F4F8EE794E0B4D9CE0101960E94EF08DB
:1022C00084E594E07CD9813009F04BC32091DC0493
:1022D0003091DD04032E000C440B550BC701B601F1
:1022E00057D4CA01B90128E631E040E050E050D4AB
:1022F0002093D8043093D9044093DA045093DB043C
:102300002091C2043091C304032E000C440B550BE2
:10231000C701B6013DD4CA01B90128E631E040E069
:1023200050E036D42093BE043093BF044093C004E1
:102330005093C1042091A8043091A904032E000CED
:10234000440B550BC701B60123D4CA01B90128E6D5
:1023500031E040E050E01CD42093A4043093A50465
:102360004093A6045093A7048EE794E00E94AE0920
:102370008091740390917503181619060CF03DC0F6
:102380000E9436018C0169EF72E08BEA93E00E94B3
:10239000C309A8014F5F5F4F60917403709175038B
:1023A0006E5F7F4FCE010196D6D9BE016F5F7F4F22
:1023B00086E694E035D9CE0101960E94EF0840915F
:1023C0006A0450916B0466E673E086E694E0D1D827
:1023D00086E693E0B8D38C0190938D0380938C03B1
:1023E0008AE0809FB001819F700D112486ED94E0FA
:1023F0000E944806C8010E949D0980917203909135
:102400007303181619060CF03DC00E9436018C01AA
:1024100066E073E08BEA93E00E94C309A8014F5F76
:102420005F4F60917203709173036E5F7F4FCE01B7
:10243000019691D9BE016F5F7F4F80E694E0F0D89E
:10244000CE0101960E94EF0840916404509165040A
:1024500062E673E080E694E08CD882E693E073D382
:102460008C0190938B0380938A038AE0809FB00154
:10247000819F700D11248CEB94E00E944806C801E6
:102480000E949D098091700390917103181619069E
:102490000CF03DC00E9436018C0163E173E08BEAD1
:1024A00093E00E94C309A8014F5F5F4F60917003E2
:1024B000709171036E5F7F4FCE0101964CD9BE01C2
:1024C0006F5F7F4F8AE594E0ABD8CE0101960E9402
:1024D000EF0840915E0450915F046EE573E08AE579
:1024E00094E047D88EE593E02ED38C019093890336
:1024F000809388038AE0809FB001819F700D112432
:1025000082EA94E00E944806C8010E949D098091D9
:102510007A0390917B031816190654F480E293E035
:102520000E94030980918E0390918F030E94CF0631
:1025300080917803909179031816190654F487E373
:1025400093E00E94030980918E0390918F030E9473
:10255000CF0650E040E066E072E084E894E0C1D845
:1025600060E080E00E94B80860E572E08AE894E0EC
:102570000E94C30960E082E00E94B80860918E0367
:1025800070918F038AE894E00E94140961E080E072
:102590000E94B80863E572E08AE894E00E94C309EB
:1025A00061E082E00E94B80860918C0370918D0315
:1025B0008AE894E00E94140960E089E00E94B8086B
:1025C00066E572E08AE894E00E94C30960E08BE06F
:1025D0000E94B80860918A0370918B038AE894E0A6
:1025E0000E94140961E089E00E94B80869E572E080
:1025F0008AE894E00E94C30961E08BE00E94B80879
:1026000060918803709189038AE894E00E9414091C
:102610008091860390918703892B41F480919A04DD
:102620008D7F80939A0488600E941D0880EF94E05B
:102630000E94F904882391F080918E0390918F037A
:10264000892B09F01CC284EF91E090938F03809353
:102650008E036FEF70E08CE20E9478020E941907EF
:10266000882371F081E090E0909387038093860344
:1026700090938503809384031092830310928203C6
:1026800001E010E08091860390918703019709F0A3
:1026900074CC0E941C070E942807809184039091AB
:1026A0008503019709F070C00E941C070E9428074B
:1026B0008091820390918303892B31F461E080E063
:1026C0000E94B8080E94C6080E941607882309F1D4
:1026D00080918C0390918D03893C91050CF0D6C1BB
:1026E000019690938D0380938C036AE070E086EDF1
:1026F00094E00E9448060E94DC0961E082E00E94AA
:10270000B80860918C0370918D038AE894E00E9470
:1027100014090E941307882309F180918C0390917A
:102720008D03181619060CF0B8C1019790938D030C
:1027300080938C0366EF7FEF86ED94E00E9448065D
:102740000E94DC0961E082E00E94B80860918C037D
:1027500070918D038AE894E00E9414090E94190781
:10276000882309F49ACF1093810300938003109279
:1027700085031092840380918203909183030196D4
:1027800090938303809382038091800390918103CF
:10279000019709F071C00E941C070E9428078091D0
:1027A000820390918303019731F460E089E00E94F5
:1027B000B8080E94C6080E941607882311F180916C
:1027C0008A0390918B038D3221E092070CF06CC14B
:1027D000019690938B0380938A036AE070E08CEB00
:1027E00094E00E9448060E94DC0960E08BE00E94B1
:1027F000B80860918A0370918B038AE894E00E9484
:1028000014090E941307882309F180918A0390918B
:102810008B03181619060CF050C1019790938B0387
:1028200080938A0366EF7FEF8CEB94E00E9448066A
:102830000E94DC0960E08BE00E94B80860918A0386
:1028400070918B038AE894E00E9414090E94190792
:10285000882309F499CF10937F0300937E0310928D
:1028600081031092800380918203909183030196EB
:10287000909383038093820380917E0390917F03E2
:10288000019709F0FFCE0E941C070E942807809143
:10289000820390918303029731F461E089E00E9402
:1028A000B8080E94C6080E941607882309F1809183
:1028B000880390918903873991050CF005C1019631
:1028C00090938903809388036AE070E082EA94E041
:1028D0000E9448060E94DC0961E08BE00E94B80873
:1028E00060918803709189038AE894E00E9414093A
:1028F0000E941307882309F180918803909189032E
:10290000181619060CF0E9C001979093890380937B
:10291000880366EF7FEF82EA94E00E9448060E94F7
:10292000DC0961E08BE00E94B80860918803709137
:1029300089038AE894E00E9414090E9419078823F9
:1029400009F49ACF10927F0310927E0310928703AE
:102950001092860310928303109282038DCF10E0B1
:102960008BCB88E494E00E94DF0A813009F040C0FC
:102970002091DC043091DD04032E000C440B550B38
:10298000C701B60105D1CA01B901A501940100D161
:102990002093D8043093D9044093DA045093DB0495
:1029A0002091C2043091C304032E000C440B550B3C
:1029B000C701B601EDD0CA01B901A5019401E8D063
:1029C0002093BE043093BF044093C0045093C104CD
:1029D0002091A8043091A904032E000C440B550B40
:1029E000C701B601D5D0CA01B901A5019401B3CC84
:1029F0008EE494E00E94DF0A813009F0B5CC20918A
:102A0000DC043091DD04032E000C440B550BC70190
:102A1000B601BED0CA01B901A3019201B9D0209379
:102A2000D8043093D9044093DA045093DB04209106
:102A3000C2043091C304032E000C440B550BC70194
:102A4000B601A6D0CA01B901A3019201A1D0209379
:102A5000BE043093BF044093C0045093C10420913E
:102A6000A8043091A904032E000C440B550BC70198
:102A7000B6018ED0CA01B901A30192016CCC1092AB
:102A80008F0310928E0370E060E0E5CD30928D03ED
:102A900020928C030E94250A2ECE0E94250A1092B5
:102AA0008D0310928C034CCE8CE291E090938D03B9
:102AB00080938C030E94250A96CE10928B0310926D
:102AC0008A030E94250AB4CE86E990E09093890398
:102AD000809388030E94250AFDCE109289031092EC
:102AE00088030E94250A1BCF0E94C9047BC988E481
:102AF00094E00E94EF088EE494E00E94EF0884E5E1
:102B000094E00E94EF088AE594E00E94EF0880E6D6
:102B100094E00E94EF0886E694E00E94EF088CE6BD
:102B200094E00E94EF0882E794E00E94EF0888E7B3
:102B300094E00E94EF088EE794E00E94EF0884E89A
:102B400094E00C94EF08FC0188279927E8942191E0
:102B50002032E9F3293010F02E30C8F32B3239F04F
:102B60002D3231F4689403C00BD0820F911D219156
:102B700020532A30C8F31EF4909581959F4F0895F5
:102B80007AE0979F902D879F802D910D11240895B5
:102B9000052E97FB16F400940FD057FD05D01ED0DC
:102BA00007FC02D046F408C0509540953095219519
:102BB0003F4F4F4F5F4F0895909580957095619569
:102BC0007F4F8F4F9F4F08952BD0A59F900DB49F9F
:102BD000900DA49F800D911D11240895A1E21A2E3D
:102BE000AA1BBB1BFD010DC0AA1FBB1FEE1FFF1FB1
:102BF000A217B307E407F50720F0A21BB30BE40B01
:102C0000F50B661F771F881F991F1A9469F7609547
:102C10007095809590959B01AC01BD01CF01089501
:102C2000A29FB001B39FC001A39F700D811D11240D
:102C3000911DB29F700D811D1124911D089597FB68
:102C4000072E16F4009406D077FD08D01CD007FCA0
:102C500005D03EF4909581959F4F089570956195AC
:102C60007F4F0895EE0FFF1F881F8BBF0790F691CF
:102C7000E02D19942A193B094C095D096E097F0959
:102C8000800B910B0895AA1BBB1B51E107C0AA1F23
:102C9000BB1FA617B70710F0A61BB70B881F991FFD
:102CA0005A95A9F780959095BC01CD0108950F9391
:102CB0001F93CF93DF938230910510F482E090E070
:102CC000E0912A05F0912B0530E020E0B0E0A0E093
:102CD000309799F42115310509F44AC0281B390BA6
:102CE00024303105D8F58A819B816115710589F100
:102CF000FB0193838283FE0111C0408151810281D7
:102D0000138148175907E0F04817590799F41097AD
:102D100061F012960C93129713961C933296CF0182
:102D2000DF91CF911F910F91089500932A05109381
:102D30002B05F4CF2115310551F04217530738F018
:102D4000A901DB019A01BD01DF01F801C1CFEF014B
:102D5000F9CF90932B0580932A05CDCFFE01E20F8A
:102D6000F31F819391932250310939832883D7CF60
:102D70002091280530912905232B41F4209102024E
:102D800030910302309329052093280520910002F9
:102D9000309101022115310541F42DB73EB7409124
:102DA000040250910502241B350BE0912805F09197
:102DB0002905E217F307A0F42E1B3F0B281739074C
:102DC00078F0AC014E5F5F4F2417350748F04E0F87
:102DD0005F1F5093290540932805819391939FCFBE
:102DE000F0E0E0E09CCFCF93DF930097E9F0FC01A7
:102DF000329713821282A0912A05B0912B05ED0122
:102E000030E020E01097A1F420813181820F931FE0
:102E100020912805309129052817390709F061C04C
:102E2000F0932905E0932805DF91CF910895EA01F9
:102E3000CE17DF07E8F54A815B819E0141155105F8
:102E4000B1F7E901FB83EA8349915991C40FD51F7A
:102E5000EC17FD0761F4808191810296840F951F24
:102E6000E90199838883828193819B838A83F0E03F
:102E7000E0E012968D919C9113970097B9F52D91F2
:102E80003C911197CD010296820F931F2091280546
:102E9000309129052817390739F6309751F51092E6
:102EA0002B0510922A05B0932905A0932805BCCFC5
:102EB000D383C28340815181840F951FC817D907DE
:102EC00061F44E5F5F4F88819981480F591F51838C
:102ED00040838A819B81938382832115310509F088
:102EE000B0CFF0932B05E0932A059ECFFD01DC01C6
:102EF000C0CF13821282D7CF4F925F926F927F9290
:102F00008F929F92AF92BF92CF92DF92EF92FF92F9
:102F10000F931F93CF93DF938C01009791F4CB0114
:102F2000DF91CF911F910F91FF90EF90DF90CF90A5
:102F3000BF90AF909F908F907F906F905F904F90D9
:102F4000B6CEFC01E60FF71F9C0122503109E217B3
:102F5000F30708F4AAC0D901CD91DC911197C617E7
:102F6000D70718F1C530D10570F0CE010497861748
:102F7000970748F0C61BD70B2297C193D1936D9347
:102F80007C93CF0130DFC801DF91CF911F910F916A
:102F9000FF90EF90DF90CF90BF90AF909F908F9079
:102FA0007F906F905F904F9008955B01AC1ABD0ABF
:102FB0004C018C0E9D1EA0912A05B0912B05512C21
:102FC000412CF12CE12C109731F58091280590913E
:102FD00029058815990509F05CC04616570608F0C2
:102FE00058C08091000290910102009741F48DB782
:102FF0009EB74091040250910502841B950BE8177F
:10300000F90708F052C0F0932905E0932805F9016B
:1030100071836083B8CF8D919C91119712966C90BB
:10302000129713967C901397A815B90559F56C0162
:1030300042E0C40ED11CCA14DB0420F1AC014A19D1
:103040005B09DA011296159780F0628273825183D0
:103050004083D9016D937C93E114F10471F0D701A1
:103060001396FC93EE9312978ECF22968C0F9D1F92
:10307000F90191838083F301EFCFF0932B05E09367
:103080002A0581CF4816590608F42C017D01D30189
:103090009ACFCB010CDE7C01009739F0AE01B8016C
:1030A00007D0C801A0DE87016ECF10E000E06BCF33
:1030B000FB01DC0102C001900D9241505040D8F755
:1030C0000895FB01DC018D91019080190110D9F365
:1030D000990B0895FB01DC0101900D920020E1F7AE
:1030E0000895FB01DC014150504030F08D9101907A
:1030F000801919F40020B9F7881B990B0895FB017A
:10310000DC014150504048F001900D920020C9F779
:1031100001C01D9241505040E0F70895FB015191CC
:103120005523A9F0BF01DC014D9145174111E1F78D
:1031300059F4CD010190002049F04D914015411105
:10314000C9F3FB014111EFCF81E090E001970895B1
:1031500011E0C3E0D1E000E005C0802FFE0182DD78
:103160002196011DC430D10780E00807B1F7F8941B
:02317000FFCF8F
:1031720000002C0580000000000000005E04C9036E
:10318200F603AA0427040504190400000000CE086F
:10319200C9037205C80300000000060503050D0AF5
:1031A200004572726F723A20506C6561736500431C
:1031B2006C6F73652074686520636F766572210099
:1031C200533A00583A00593A005A3A004F7665721B
:1031D2002054726176656C00417869733A00582B0D
:1031E20000582D00592B00592D005A2B005A2D0042
:1031F200537461727400434E4320526F757465724A
:1032020000486F6D65205265743F203C533E004D6F
:10321200616368696E6520686F6D6500696E207014
:10322200726F67726573732E2E0024002300533D64
:1032320000463D00583D00593D005A3D00434F4D68
:10324200414E444F532053455249414C3A20005677
:10325200414C4F5220444520533A200056414C4F96
:103262005220444520463A200056414C4F522044B9
:103272004520583A200056414C4F5220444520598F
:103282003A200056414C4F52204445205A3A2000E1
:10329200524F544143414F2053454E5449444F20CD
:1032A20043573A204D3300524F544143414F20532C
:1032B200454E5449444F204343573A204D34000071
:00000001FF
